{
    "_format": "hh-sol-artifact-1",
    "contractName": "Reputation",
    "sourceName": "contracts/reputation.sol",
    "abi": [
        {
            "anonymous": false,
            "inputs": [
                {
                    "indexed": true,
                    "internalType": "address",
                    "name": "user",
                    "type": "address"
                },
                {
                    "indexed": false,
                    "internalType": "uint256",
                    "name": "amount",
                    "type": "uint256"
                }
            ],
            "name": "ReputationIncreased",
            "type": "event"
        },
        {
            "inputs": [
                {
                    "internalType": "address",
                    "name": "user",
                    "type": "address"
                }
            ],
            "name": "getReputation",
            "outputs": [
                {
                    "internalType": "uint256",
                    "name": "",
                    "type": "uint256"
                }
            ],
            "stateMutability": "view",
            "type": "function"
        },
        {
            "inputs": [
                {
                    "internalType": "address",
                    "name": "user",
                    "type": "address"
                },
                {
                    "internalType": "uint256",
                    "name": "amount",
                    "type": "uint256"
                }
            ],
            "name": "increaseReputation",
            "outputs": [],
            "stateMutability": "nonpayable",
            "type": "function"
        },
        {
            "inputs": [
                {
                    "internalType": "address",
                    "name": "",
                    "type": "address"
                }
            ],
            "name": "reputation",
            "outputs": [
                {
                    "internalType": "uint256",
                    "name": "",
                    "type": "uint256"
                }
            ],
            "stateMutability": "view",
            "type": "function"
        }
    ],
    "bytecode": "0x6080604052348015600f57600080fd5b506103928061001f6000396000f3fe608060405234801561001057600080fd5b50600436106100415760003560e01c80639c89a0e214610046578063b9f7945114610076578063ded86d68146100a6575b600080fd5b610060600480360381019061005b919061022c565b6100c2565b60405161006d9190610272565b60405180910390f35b610090600480360381019061008b919061022c565b61010a565b60405161009d9190610272565b60405180910390f35b6100c060048036038101906100bb91906102b9565b610122565b005b60008060008373ffffffffffffffffffffffffffffffffffffffff1673ffffffffffffffffffffffffffffffffffffffff168152602001908152602001600020549050919050565b60006020528060005260406000206000915090505481565b806000808473ffffffffffffffffffffffffffffffffffffffff1673ffffffffffffffffffffffffffffffffffffffff16815260200190815260200160002060008282546101709190610328565b925050819055508173ffffffffffffffffffffffffffffffffffffffff167ffac498e7ee7d43e382528bf22afd838a7c6abfa5f54e7c564f7e5a54a18ca34c826040516101bd9190610272565b60405180910390a25050565b600080fd5b600073ffffffffffffffffffffffffffffffffffffffff82169050919050565b60006101f9826101ce565b9050919050565b610209816101ee565b811461021457600080fd5b50565b60008135905061022681610200565b92915050565b600060208284031215610242576102416101c9565b5b600061025084828501610217565b91505092915050565b6000819050919050565b61026c81610259565b82525050565b60006020820190506102876000830184610263565b92915050565b61029681610259565b81146102a157600080fd5b50565b6000813590506102b38161028d565b92915050565b600080604083850312156102d0576102cf6101c9565b5b60006102de85828601610217565b92505060206102ef858286016102a4565b9150509250929050565b7f4e487b7100000000000000000000000000000000000000000000000000000000600052601160045260246000fd5b600061033382610259565b915061033e83610259565b9250828201905080821115610356576103556102f9565b5b9291505056fea26469706673582212206feb84e7b06d4f5dccd9b9faeab7ed123c015f0568a81c828e8d000cdea5af6d64736f6c634300081c0033",
    "linkReferences": {},
    "deployedLinkReferences": {}
}